:020000040800F2
:10000000D00800209D010008D1140008CD1400087C
:10001000CF140008CD020008D91A00080000000023
:10002000000000000000000000000000A916000809
:10003000C503000800000000D3140008AB16000838
:10004000B7010008B7010008B7010008B7010008B0
:10005000B7010008B7010008B7010008B7010008A0
:10006000B7010008B7010008B7010008B701000890
:10007000B7010008B7010008B7010008B701000880
:100080000903000815030008B7010008B7010008BC
:10009000B7010008B7010008B7010008B701000860
:1000A000B7010008B7010008B7010008B701000850
:1000B000B7010008B7010008B7010008B701000840
:1000C000B7010008B7010008B7010008B701000830
:1000D000B7010008B7010008CD1A0008B7010008F1
:1000E000B7010008B7010008B7010008B701000810
:1000F000B7010008B7010008B7010008B701000800
:10010000B7010008B7010008B7010008B7010008EF
:10011000B7010008B7010008B7010008B7010008DF
:10012000B7010008B7010008B7010008B7010008CF
:10013000B7010008B7010008B7010008B7010008BF
:10014000B7010008B7010008B7010008B7010008AF
:10015000B7010008B7010008B7010008B70100089F
:10016000B7010008B7010008B7010008B70100088F
:10017000B7010008B7010008B7010008000000003F
:10018000B7010008B7010008DFF80CD000F08CF8C8
:1001900000480047191B0008D00800200648804787
:1001A00006480047FEE7FEE7FEE7FEE7FEE7FEE75C
:1001B000FEE7FEE7FEE7FEE74917000889010008B1
:1001C0002DE9F05F0546002092469B46884606468C
:1001D000814640241BE0284641464746224600F01F
:1001E00053F853465A46C01A914110D31146184647
:1001F000224600F03AF82D1A67EB01084F462246D6
:100200000120002100F031F817EB00094E41201EBB
:10021000A4F10104DFDC484631462A464346BDE8E6
:10022000F09F40EA01039B0703D009E008C9121FB1
:1002300008C0042AFAD203E011F8013B00F8013BA0
:10024000521EF9D27047D2B201E000F8012B491ECC
:10025000FBD270470022F6E710B513460A46044663
:100260001946FFF7F0FF204610BD202A04DB203A94
:1002700000FA02F1002070479140C2F1200320FAF9
:1002800003F3194390407047202A04DB203A21FAF7
:1002900002F00021704721FA02F3D040C2F120029F
:1002A0009140084319467047064C074D06E0E06848
:1002B00040F0010394E8070098471034AC42F6D3AD
:1002C000FFF766FF281D0008481D0008FEE770B50F
:1002D0004FF6FF7200234AF201050DE0C45C624054
:1002E0000024D6074FEA520200D06A40641CE4B2F0
:1002F000082CF6D35B1CDBB28B42EFDBC2541844F4
:10030000110A417070BD0000014800F0B7B800004C
:1003100074000020014800F0B1B800006C04002017
:1003200001681823CAB2103AB2FBF3F2054B6FF31F
:100330000901032A9B5CC36500D9091D8165084634
:1003400070470000081D000810B5014600208B69A9
:100350008A6A4FF0C07453B1B3F5005F15D072B123
:10036000012A0CD0022A0AD0032A09D104E01AB1CA
:10037000012A06D0022A03D1C96AC90100D5012089
:1003800010BDC96AA142FAD010BD002AF7D0012AD7
:10039000F2D0022AF3D0032AF3D010BD30B504689E
:1003A000256825F480252560046863608368402BF8
:1003B000036803D099600068C26030BD9A6000682D
:1003C000C16030BD704772B6FEE72DE9F0410446CA
:1003D000876D00F0CDFA064694F835000025022816
:1003E00006D08020606584F834500120BDE8F0819B
:1003F0002068016821F0160101602068416921F040
:1004000080014161206C08B9A06C20B120680168AE
:1004100021F0080101602068016821F001010160FC
:100420000BE000F0A5FA801B052806D920206065A6
:1004300004F8345F03206070D8E720680068C007C4
:10044000EFD194F85C103F208840B86004F8345F26
:10045000012060700020C9E790F83510022903D010
:100460008021416501207047052180F83510006822
:10047000016821F001010160002070472DE9F84377
:1004800004464FF00009CDF8009063484FF4165130
:10049000A56D0068B0FBF1F72E6894F85C10082099
:1004A00000FA01F131420FD021680A6852070BD5DA
:1004B0000A6822F004020A6094F85C108840A86080
:1004C000606D40F00100606594F85C104FF0010829
:1004D00008FA01F0304208D021684969090604D5BC
:1004E000A860606D40F00200606594F85C10042024
:1004F0008840304208D021680968890704D5A8607F
:10050000606D40F00400606594F85C101020884035
:10051000304218D021680968090714D5A8602068FE
:100520000168490304D50068000308D5A16C07E001
:100530000168C90503D4016821F008010160216C3C
:1005400009B12046884794F85C102020884030424A
:1005500031D021680968C9062DD5A86094F8350006
:1005600005282068016806D0490347D500680003C4
:100570001DD4616C1CE021F0160101602068416906
:1005800021F080014161206C08B9A06C20B1206885
:10059000016821F00801016094F85C103F20884058
:1005A000A86084F8349084F83580216D1FE0E16BF9
:1005B00009B120468847606D00282BD0606DC007C8
:1005C00014D0052084F835002068016821F001016D
:1005D00001600098401C0090B84203D82068006871
:1005E000C007F6D184F8349084F83580E16C002996
:1005F00010D001B02046BDE8F04308470168C905A6
:10060000D5D4016821F01001016084F8349084F899
:100610003580CCE7BDE8F8832C0000202DE9F041BF
:10062000044600F0A5F906465CB1002584F8345074
:10063000022084F835002068016821F00101016082
:100640000DE00120BDE8F08100F092F9801B052843
:1006500005D920206065032084F83500F2E7206882
:100660000068C007F0D12268116820480140D4E931
:1006700001031843D4E9033633431843636918432D
:10068000A3691843E3691843236A18430843616A5E
:10069000042903D1D4E90B131943084310602068DF
:1006A0004069666A20F0070130460E43012704289E
:1006B0000CD1A06A0643E06A40B12046FFF744FE31
:1006C00020B14020606584F83570BAE72068466143
:1006D0002046FFF725FE94F85C203F219140816081
:1006E000656584F835700020ACE700003F8010F0AD
:1006F0002DE9F0410446866D90F83400002501286C
:100700000DD0012084F8340094F835700020012FBA
:1007100007D084F8340002252846BDE8F081022085
:10072000FBE7022784F8357060652046FFF736FE48
:1007300094F85C103F208840B0602068016841F068
:1007400016010160206C20B12068016841F00801A9
:1007500001602068016841F001010160DCE70000F0
:1007600070B5044600F004F90546601C02D0044848
:100770000078044400F0FCF8401BA042FAD370BD9E
:10078000200000202DE9F84FDFF8B8A10022012554
:100790000AF1040B03264FF00F090BF1040E00BF02
:1007A0000B6805FA02F42340A3426FD10F7907F0DA
:1007B0000307012F01D0022F16D187684FEA4208A4
:1007C00006FA08FC27EA0C07D1F80CC00CFA08FC62
:1007D0004CEA070CC0F808C04768A7430C79C4F37B
:1007E000001494403C4344600C79E443A4070AD0CD
:1007F000C4684FEA420C06FA0CF7BC438F6807FA4C
:100800000CF72743C7600C7904F00304022C12D1C3
:10081000D40800EB840CDCF820405707FF0E09FADF
:1008200007F824EA0804D1F8108008FA07F848EA23
:100830000408CCF8208004684FEA420C06FA0CF752
:10084000BC430F7907F0030707FA0CF7274307604B
:100850004C68E40070D53C4C276847F4804727601B
:10086000246822F0030704F480440094374C07EB1B
:10087000040CDCF8084897074FEA177809FA08F7DC
:10088000BC43334FB84202D1002724E054E0314F3B
:10089000B84201D101271EE02F4FB84201D10227F3
:1008A00019E02E4FB84201D1032714E02C4FB84273
:1008B00001D104270FE02B4FB84201D105270AE0F0
:1008C000294FB84201D1062705E0284FB84201D18F
:1008D000072700E0082707FA08F72743CCF808782D
:1008E000DAF800405746D1F804C09C435FEACC3C9C
:1008F00000D51C433C60DBF800405F46D1F804C0E3
:100900009C435FEA8C3C00D51C433C60DEF8004011
:100910007746D1F804C09C435FEACC2C00D51C4339
:100920003C60084F0C373C68D1F804C09C435FEA38
:100930008C2C00D51C433C60521C102AFFF430AFB5
:10094000BDE8F88F003C01404438024000300140CF
:10095000000002400004024000080240000C024077
:10096000001002400014024000180240001C024027
:10097000014880687047000020000020024881681C
:100980000278114481607047200000200B4810B5A8
:10099000016841F400710160016841F48061016007
:1009A000016841F480710160032000F06FF80020BD
:1009B00000F006F800F024F8002010BD003C0240D2
:1009C00070B50D4D04464FF47A712878B1FBF0F004
:1009D0000A490968B1FBF0F000F00AFB48B9102C95
:1009E00007D200222146501E00F030F800206C6033
:1009F00070BD012070BD0000200000202C000020F0
:100A00000A4808B5016841F480410160006800F4BB
:100A1000804000900548001F016841F0805101604E
:100A2000006800F08050009008BD0000443802408B
:100A3000002809DB00F01F020121914040098000DD
:100A400000F1E020C0F8001170470000F0B40E4B38
:100A50001B680C46C3F30223C3F10705042D00D91C
:100A60000425191D072901D2002300E0DB1E012601
:100A700006FA05F1491E214099409E40761E164017
:100A80003143F0BC01F029B80CED00E0064900F05C
:100A9000070208684FF6FF03184040EA0220034AA5
:100AA00010430860704700000CED00E00000FA05FC
:100AB0002DE9F0470E46050065D0DFF81481D8F81F
:100AC0000000F7B200F00700B04207D288F80070CB
:100AD000D8F8000000F00700B04254D128683D4C1F
:100AE000810712D5400703D5206840F4E05020600C
:100AF0002878000703D5206840F460402060206813
:100B0000A96820F0F000084320602878C0072DD0A5
:100B1000304968680839012812D0022813D0032808
:100B200011D00968890700292DDA216821F0030115
:100B300001432160FFF71CFF814641F2883A0EE035
:100B400009688903EFE709688901ECE7FFF710FFFF
:100B5000A0EB0901514502D90320BDE8F0872068C8
:100B6000696800F00C00B0EB810FEFD1D8F80010ED
:100B7000404601F00701B14207D90770006800F054
:100B80000700B04201D00120E7E72878400705D5EB
:100B90002068E96820F4E0500843206028780007C6
:100BA00006D52068296920F4604040EAC100206031
:100BB00000F038F82168084AC1F30311515CC840BD
:100BC0000649086006480068FFF7FAFE0020C4E7FF
:100BD000003C024008380240101D00082C00002094
:100BE000240000200448054900680968044AC1F34C
:100BF0008221515CC84070472C0000200838024018
:100C0000201D00080448054900680968044AC1F32A
:100C10004231515CC84070472C0000200838024027
:100C2000201D0008154810B5006810F00C0214488B
:100C300013D04110042A0FD0082A0ED10F4C241FC4
:100C40002268236802F03F025B0207D52068C0F3E8
:100C50008810A0FB010106E0084610BD2168C1F321
:100C60008811A1FB00010023FFF7AAFA2168C1F354
:100C70000141491C4900B0FBF1F010BD08380240A9
:100C80000024F4002DE9F84F04006ED02078DFF83E
:100C90004C93C007A9F104054AD009F1040001688A
:100CA000C1F38101012908D00068C0F38100022846
:100CB0000AD1D9F80000400206D52868800337D54C
:100CC00060680028E1D033E06068B0F5803F10D064
:100CD000B0F5A02F286810D020F480302860286854
:100CE00020F4802028606068A8B1FFF741FE064626
:100CF0000DE0286840F48030F4E740F4802028605C
:100D0000F7E700BFFFF734FE801B642873D828681C
:100D10008003F7D50CE0FFF72BFE064605E000BF89
:100D2000FFF726FE801B6428F0D828688003F7D4DC
:100D30002078DFF8AC8280074FF0000A3ED5A74844
:100D4000001D016811F00C0F08D00068C0F381008D
:100D500002280BD1D9F80000400207D42868800788
:100D600016D5E068012800D112E033E1E068B8B19F
:100D70000120C8F80000FFF7FBFD064605E000BFB4
:100D8000FFF7F6FD801B0228C0D828688007F7D53A
:100D90002868216920F0F80040EAC10028600DE0D1
:100DA000C8F800A0FFF7E4FD064604E0FFF7E0FD09
:100DB000801B02281FD828688007F7D420780007F6
:100DC00022D5864F87486169703771B10121016072
:100DD000FFF7CEFD064604E0FFF7CAFD801B0228A0
:100DE00009D838688007F7D50EE0C0F800A0FFF7F3
:100DF000BFFD064605E082E0FFF7BAFD801B022832
:100E00007DD838688007F7D42078400768D5DFF8A8
:100E1000CCB100270BF13C0BDBF80000C0000BD479
:100E2000DBF8001041F08051CBF80010DBF8000037
:100E3000012700F0805000906B4E3068C00510D440
:100E4000306840F480703060FFF792FD009005E05C
:100E5000FFF78EFD0099401A022850D83068C0056F
:100E6000F6D55E4EA0686C3601280FD00528306894
:100E700010D020F001003060306820F004003060B5
:100E8000A068B8B1FFF774FD00900FE0306840F043
:100E90000100F4E740F004003060F7E7FFF768FD79
:100EA0000099411A41F28830814266D83068800743
:100EB000F4D50EE0FFF75CFD009007E0FFF758FD6A
:100EC0000099411A41F28830814256D83068800733
:100ED000F4D42FB1DBF8001021F08051CBF80010D2
:100EE000A069C8B33D49091D0968C1F38101022900
:100EF0004AD00228504607D0C8F8600000E03CE025
:100F0000FFF736FD04463BE04746C8F86000FFF7B0
:100F10002FFD064605E000BFFFF72AFD801B0228D3
:100F20002BD828688001F7D4D4E907010843A16AC7
:100F30002E4A490802EB0141626A41EA82110843E4
:100F400094F82C1040EA0161C9F8001001203866BD
:100F5000FFF70EFD044606E03EE000BFFFF708FD88
:100F6000001B022809D828688001F7D534E000BFAB
:100F7000FFF7FEFC001B022802D90320BDE8F88F12
:100F800028688001F4D427E00128F7D0D9F80000C0
:100F9000E26900F4800191421CD1226A00F03F0115
:100FA000914217D147F6C071626A0140B1EB821FCE
:100FB00010D1A26A4FF0FF3300F4403103EB52022C
:100FC000B1EB024F06D194F82C1000F07060B0EB3A
:100FD000016F01D00120D1E70020CFE704380240A3
:100FE00000004742800E4742007000400000FFFFB3
:100FF00010B5401EB0F1807F01D3012010BD4FF02D
:10100000E02460610F21601700F067FD0020A061FF
:1010100007202061002010BD38B5044690F83E003E
:1010200020281CD181B17AB194F83C00012816D057
:10103000012084F83C002063204600F00FFD0028CA
:1010400003D1216B012901D0012038BD21680A6834
:101050004A680092CA6842F01002CA6038BD022095
:1010600038BD000070B50D4600681C49884233D178
:101070001B4C1C49608820804219802A13D9C0F17A
:10108000800296B2084432464039FFF7CAF8002081
:1010900020801448AD1B403881192A464030FFF7A4
:1010A000C0F8658008E008440E492A464039FFF739
:1010B000B8F82088284460800A4940224039A1F1CC
:1010C000A400FFF7A9FF0748A0380068016821F0D5
:1010D000080101600120A06070BD000000440040D4
:1010E000000000201401002070470000F8B50268DD
:1010F00004461068D168536910F00F0F4FF00005D7
:1011000053D003F0010601F4907737435FD0C20754
:1011100005D0CA0503D5226C42F0010222644207C1
:1011200005D5DA0703D0226C42F00202226482075E
:1011300005D5DA0703D0226C42F0040222640207CC
:1011400007D501F02002324303D0226C42F008029E
:101150002264226C002A34D0800604D5880602D589
:10116000204600F09DFB20684069216CC0F3801090
:10117000090700D430B3204600F071FB20684169B4
:1011800049061BD5416921F040014161A06BA8B11E
:1011900059490165A06BFFF75FF9002811D0A06BDA
:1011A000016D01B0BDE8F040084783060FD58B06FE
:1011B0000DD52046BDE8F84000F072BB2046FFF791
:1011C00093FFF8BD2046FFF78FFF2564F8BD266B1F
:1011D0002023012E53D1C60651D5CE064FD5106817
:1011E00050680090506940062BD5A16B0868406894
:1011F0000004000CEAD0A68D8642E7D9E085C869D4
:10120000B0F5807F18D0D06820F48070D06020685E
:10121000416921F0010141612068416921F04001EB
:10122000416184F83E3025632068C16821F01001D7
:10123000C160A06BFFF7C9F8A08DE18D401A81B2A3
:1012400019E0A08DE18D401A81B2E08D0028BDD05B
:101250000029BBD0D06820F49070D060206842692B
:1012600022F00102426184F83E3025632068C268A2
:1012700022F01002C2602046FFF7F4FEF8BD05061A
:101280002BD50D0629D594F83D002128F6D1A0686C
:10129000B0F5805F01D12069B0B1206A411C2162A4
:1012A000216800784860E08C401E0004000CE08457
:1012B000E4D12068C16821F08001C1602068C16864
:1012C00041F04001C160F8BD206A0088C0F3080009
:1012D0005060206A801C2062E5E74006F3D548068E
:1012E000F1D5D168204621F04001D16084F83D302D
:1012F00000F0EAF8F8BD00005917000870B50400C6
:1013000004D094F83D00002510B106E0012070BD26
:1013100084F83C50204600F023F8242084F83D0057
:101320002068C16821F40051C160204600F010FB24
:101330002068016921F4904101612068416921F030
:101340002A0141612068C16841F40051C1602564EF
:10135000202084F83D0084F83E00002070BD00008D
:101360002DE9F04186B0064614216846FEF772FF6B
:101370002E493068884256D12D480024016841F436
:1013800000310160006800F40030059028481038F2
:10139000016841F0010101600068694600F0010048
:1013A00005900C2000900220CDE901040320039059
:1013B000072004901F48FFF7E5F9204D1E484FF025
:1013C00000672860C5E901744FF48068C5E90348E7
:1013D0006C61AC61EC612C6228466C62FFF71EF90F
:1013E00008B1FEF7F0FFB563AE631348144D183033
:1013F000E5E802074020A5E81101114845F8144925
:10140000AC61EC612C626C62FFF708F908B1FEF781
:10141000DAFF7563002211462620AE63FFF716FB44
:101420002620FFF705FB06B0BDE8F0810044004030
:1014300040380240000002408860024074000020F2
:101440006C0400207047704770B5044690F83D006A
:10145000202830D169B362B394F83C0001282AD027
:10146000012084F83C002162A284E28400252564E6
:10147000212084F83D00636B1048D863636B1048EB
:101480001864636B0F48D864606B13460565266863
:10149000606B321DFFF72CF921686FF04000086087
:1014A00084F83C502068416941F08001416100208E
:1014B00070BD012070BD022070BD0000271800081B
:1014C000551800086917000870477047FEE7FEE7E7
:1014D000FEE770472DE9F04F704E4FF0000ADFF83D
:1014E000C0810C46074655464FF0640BC6F81CA059
:1014F000785D00F091FBF06964281BD0002819D0BA
:1015000001287CD002287AD0032813D0042812D0D6
:10151000052813D00C2872D00D2830D016287FD083
:1015200017286DD0182850D0202879D0212867D0CE
:10153000222866D076E0307D400044E0002041461D
:10154000C6F810A012E0B36932691A4431F81220CB
:10155000130A2218D370D6F818C03369634411F8FF
:10156000133013713269521C801C32617269B0EB06
:10157000420FE8DBB08A032101EB400016E0C6F819
:1015800010A0D6E90539002150460BE07A1892F8F0
:1015900008C0D2790CEB022200EB090C401C28F8A1
:1015A0001C20891C9942F1DB30610620B080C6F80E
:1015B0001CB037E000EB5171012000EBE10002E0CC
:1015C00000EB5170C008A0702CE0002122E0B0694F
:1015D000344B00EBC1001A5C1844437890F803C008
:1015E00042EA430283789B0043EACC031A4303791F
:1015F00042EA0312437942EA4312837902E00FE0A0
:101600001DE022E0C07942EA831242EAC01062186B
:10161000491CD070A0788842D9DCC0B2C01CC5E794
:10162000785D60556D1C142DFFF662AFB1882046C1
:10163000FEF74DFEB088801CB080BDE8F08F706969
:1016400041074FEAE071BBD0B4E7002121E0B06967
:10165000144B00EBC100643313F8102003EB40007F
:10166000837890F806C042EA430203799B0043EA7C
:10167000CC031A43037A42EA0312837A42EA431202
:10168000037B807B42EA831242EAC0106218491C45
:10169000D070A0788842DADCBFE7000000000020AC
:1016A000A4030020780200207047FFF767B900000C
:1016B00030B593B030216846FEF7CCFD14210CA85C
:1016C000FEF7C8FD1E480025016841F08051016009
:1016D000006800F0805011901A48016841F4804180
:1016E00001600068022400F4804011900120009005
:1016F000000401908001CDE90640082008904FF4D5
:10170000A870CDE9090404200B906846FFF7BAFAE7
:1017100008B172B6FEE70CA90F2081E831004FF442
:10172000A0500F904FF48050109005210CA8FFF7A7
:10173000BFF9002801D072B6FEE713B030BD00003B
:1017400040380240007000400248016841F47001D6
:101750000160704788ED00E010B5806B0021C18505
:10176000C184FFF7C1FC10BD70B5846B206840696F
:1017700094F83D10C0F3C0100025212904D118B100
:10178000E584204600F083F82068406994F83E1014
:10179000C0F38010222904D118B1E585204600F05D
:1017A0005EF8206C40F0100020642046FFF79CFC9F
:1017B00070BD10B50146806B09680968C9051BD466
:1017C0000021C1850168CA6822F48072CA6001687C
:1017D0004A6922F001024A6101684A6922F0400226
:1017E0004A61202180F83E10016B012904D1016873
:1017F000CA6822F01002CA60016B012902D0FFF70B
:1018000021FE10BD818DFFF72DFC10BD10B5806B42
:10181000016B012902D0FFF716FE10BD818D49082A
:10182000FFF720FC10BD10B50146806B0968096800
:10183000C9050CD40021C18401684A6922F08002E4
:101840004A610068C16841F04001C16010BDFFF706
:101850003BFE10BD10B5806BFFF737FE10BD016871
:10186000CA6822F49072CA6001684A6922F00102D3
:101870004A61016B012904D10168CA6822F0100293
:10188000CA60202180F83E10002101637047016882
:10189000CA6822F0C002CA60202180F83D1070475B
:1018A00010B5044690F83E00222801D0022010BD59
:1018B000A1684FF48052914201D1206920B1A06A01
:1018C00091421BD049B10AE02168A06A4968C1F37E
:1018D00008010180A06A801C08E0216971B12168BB
:1018E000496801F07F010170A06A401CA062E08D90
:1018F000401E0004000CE08503D01CE0216849680C
:10190000F1E72068C16821F02001C1602068C1684A
:1019100021F48071C1602068416921F001014161B9
:10192000202084F83E00206B012806D02046FFF7D7
:1019300089FD00202063002010BD2068C16821F0CF
:101940001001C160A18D2046FFF78CFBF1E700007C
:1019500070B5044600680169E26821F44051114302
:1019600001612169A068E269084361691143084384
:101970002168CA6849F20C639A430243CA6020682E
:101980004169A26921F440711143416131492068E4
:10199000884202D03049884202D1FFF733F901E092
:1019A000FFF720F9E2690023192164253226B2F5F8
:1019B000004F626828D0A0FB0101930F9200FEF750
:1019C000FFFB0146B0FBF5F06FF01802504301EB4E
:1019D000800006EB0010B0FBF5F000F0F002B1FB68
:1019E000F5F002EB0012B1FBF5F06FF0180358436D
:1019F00001EB800006EB0010B0FBF5F000F00F00EB
:101A000021681044886070BDA0FB010192185B4101
:101A1000FEF7D6FB0146B0FBF5F00201B1FBF5F095
:101A20006FF01803584301EB800006EBC000B0FBD9
:101A3000F5F000F0F80002EB4002B1FBF5F058437E
:101A400001EB800006EBC000B0FBF5F000F00700F2
:101A5000D6E70000001001400014014038B5816253
:101A600082850025134604460564222084F83E0042
:101A7000A26B1348D063A26B12481064A26B124889
:101A8000D064A06B0A4605652168A06B091DFEF7AE
:101A90002FFE206801684168009184F83C50C168BD
:101AA00041F48071C1602068416941F001014161E8
:101AB0002068416941F040014161002038BD0000CB
:101AC000B31700080D180008691700080148FFF750
:101AD0000DBB000030000020FEE70907090E0028BA
:101AE00004DB00F1E02080F80014704700F00F00E4
:101AF00000F1E02080F8141D704702E008C8121FB2
:101B000008C1002AFAD170477047002001E001C1E6
:101B1000121F002AFBD17047394808B54FF4817174
:101B200001804900418040F2063181804FF481619B
:101B3000C180FEF72BFFFFF7BBFD3248002501688F
:101B400041F080010160016801F0800100910168AD
:101B500041F001010160016801F00101009101689B
:101B600041F4001101600068002200F400100090B0
:101B700011461020FEF76AFF1020FEF759FF0022E1
:101B800011461120FEF762FF1120FEF751FF1F4C96
:101B90001D4820604FF4E130C4E901050C20E560E8
:101BA000C4E90450A5612046E561FFF7A7FB08B131
:101BB00072B6FEE715494022A4311448FFF72CFA0B
:101BC000124844300068016821F008010160104E9D
:101BD0006420FEF7C5FDB0680028F9D00D49A1F1D9
:101BE000C000FFF777FCB2880A490848FFF72CFCD1
:101BF000B580B5602068C16841F04001C160E7E789
:101C0000A40300203038024000440040300000208F
:101C1000000000209401002030B539490024394AE1
:101C2000CB69082B43D007DC082B14D2DFE803F084
:101C30001417272D3A13133C202B54D007DC0C2B00
:101C400037D0162B42D0172B05D1182002E0212BBC
:101C500001D12220C86130BD0128FBD030BD03284E
:101C600007D0102807D0012807D00228F6D120205D
:101C7000F0E70220EEE70C20ECE71620EAE7CB685D
:101C8000D0545B1C0320CB60E4E7CB68D0545B1CD2
:101C9000CB60032BE2DDCC6050788861D07848615E
:101CA0000420D7E70520D5E74FF0FF30D2E76420C6
:101CB000D0E7CB68D0545B1CCB60042BCEDDCC606E
:101CC00050788861107948610D20C3E7CB68D05403
:101CD0005B1CCB60032BC1DDCC6050788861D07871
:101CE00048611720B6E7CB68D0545B1CCB60032B50
:101CF000B4DDCC6050788861D07848612120A9E7B4
:101D00000000002014020020000610160006101625
:101D1000000000000000000001020304060708099B
:101D20000000000001020304481D0008000000201C
:101D300030000000FA1A0008781D0008300000206A
:101D4000A00800000A1B00080000000000000000BE
:101D50000000000000000000000000000000000083
:101D60000000000000000000010000001000000062
:081D7000000000000024F40053
:040000050800018965
:00000001FF
